{"abi":[{"type":"function","name":"batchReward","inputs":[{"name":"currency","type":"address","internalType":"address"},{"name":"reward","type":"address","internalType":"address"},{"name":"amount","type":"uint256","internalType":"uint256"}],"outputs":[],"stateMutability":"nonpayable"},{"type":"function","name":"execute","inputs":[{"name":"calls","type":"tuple[]","internalType":"struct HelperApproveAndSwap.Call[]","components":[{"name":"to","type":"address","internalType":"address"},{"name":"value","type":"uint256","internalType":"uint256"},{"name":"data","type":"bytes","internalType":"bytes"}]}],"outputs":[],"stateMutability":"payable"},{"type":"function","name":"execute","inputs":[{"name":"calls","type":"tuple[]","internalType":"struct HelperApproveAndSwap.Call[]","components":[{"name":"to","type":"address","internalType":"address"},{"name":"value","type":"uint256","internalType":"uint256"},{"name":"data","type":"bytes","internalType":"bytes"}]},{"name":"signature","type":"bytes","internalType":"bytes"}],"outputs":[],"stateMutability":"payable"},{"type":"function","name":"nonce","inputs":[],"outputs":[{"name":"","type":"uint256","internalType":"uint256"}],"stateMutability":"view"},{"type":"event","name":"BatchExecuted","inputs":[{"name":"nonce","type":"uint256","indexed":true,"internalType":"uint256"},{"name":"calls","type":"tuple[]","indexed":false,"internalType":"struct HelperApproveAndSwap.Call[]","components":[{"name":"to","type":"address","internalType":"address"},{"name":"value","type":"uint256","internalType":"uint256"},{"name":"data","type":"bytes","internalType":"bytes"}]}],"anonymous":false},{"type":"event","name":"CallExecuted","inputs":[{"name":"sender","type":"address","indexed":true,"internalType":"address"},{"name":"to","type":"address","indexed":true,"internalType":"address"},{"name":"value","type":"uint256","indexed":false,"internalType":"uint256"},{"name":"data","type":"bytes","indexed":false,"internalType":"bytes"}],"anonymous":false},{"type":"error","name":"ECDSAInvalidSignature","inputs":[]},{"type":"error","name":"ECDSAInvalidSignatureLength","inputs":[{"name":"length","type":"uint256","internalType":"uint256"}]},{"type":"error","name":"ECDSAInvalidSignatureS","inputs":[{"name":"s","type":"bytes32","internalType":"bytes32"}]}],"bytecode":{"object":"0x6080604052348015600e575f5ffd5b50610fda8061001c5f395ff3fe60806040526004361061003e575f3560e01c80633f707e6b1461004257806345f105d2146100575780636171d1c914610076578063affed0e014610089575b5f5ffd5b610055610050366004610b2a565b6100af565b005b348015610062575f5ffd5b50610055610071366004610b84565b610111565b610055610084366004610bbe565b610388565b348015610094575f5ffd5b5061009d5f5481565b60405190815260200160405180910390f35b3330146101035760405162461bcd60e51b815260206004820152601160248201527f496e76616c696420617574686f7269747900000000000000000000000000000060448201526064015b60405180910390fd5b61010d8282610556565b5050565b61014f6040518060400160405280600f81526020017f426174636852657761726443616c6c00000000000000000000000000000000008152506105ea565b6040517f095ea7b30000000000000000000000000000000000000000000000000000000081526001600160a01b0383811660048301526024820183905284919082169063095ea7b3906044016020604051808303815f875af11580156101b7573d5f5f3e3d5ffd5b505050506040513d601f19601f820116820180604052508101906101db9190610c57565b506102526040518060400160405280600381526020017f492c200000000000000000000000000000000000000000000000000000000000815250306040518060400160405280600981526020017f417070726f76653a2000000000000000000000000000000000000000000000008152508661065e565b6102b06040518060400160405280600f81526020017f43616e206e6f77207370656e643a200000000000000000000000000000000000815250836040518060400160405280600581526020016401037b31d160dd1b815250876106db565b61030e6040518060400160405280600f81526020017f43616e206e6f77207370656e643a200000000000000000000000000000000000815250836040518060400160405280600581526020016401037b31d160dd1b815250876106db565b6040517f21670f22000000000000000000000000000000000000000000000000000000008152306004820152602481018390526001600160a01b038416906321670f22906044015f604051808303815f87803b15801561036c575f5ffd5b505af115801561037e573d5f5f3e3d5ffd5b5050505050505050565b60605f5b8481101561044f57818686838181106103a7576103a7610c7d565b90506020028101906103b99190610c91565b6103c7906020810190610caf565b8787848181106103d9576103d9610c7d565b90506020028101906103eb9190610c91565b6020013588888581811061040157610401610c7d565b90506020028101906104139190610c91565b610421906040810190610cc8565b604051602001610435959493929190610d22565b60408051601f19818403018152919052915060010161038c565b505f5f5482604051602001610465929190610d63565b6040516020818303038152906040528051906020012090505f6104b4827f19457468657265756d205369676e6564204d6573736167653a0a3332000000005f908152601c91909152603c902090565b90505f6104f68287878080601f0160208091040260200160405190810160405280939291908181526020018383808284375f9201919091525061075292505050565b90506001600160a01b03811630146105505760405162461bcd60e51b815260206004820152601160248201527f496e76616c6964207369676e617475726500000000000000000000000000000060448201526064016100fa565b61037e88885b5f80549081908061056683610d7c565b909155505f90505b828110156105aa576105a284848381811061058b5761058b610c7d565b905060200281019061059d9190610c91565b61077a565b60010161056e565b50807f280bb3599696acbf79fb8ffcde81a57337b52500f789600fbb1cff9b4cbaba3984846040516105dd929190610dc8565b60405180910390a2505050565b61065b816040516024016105fe9190610ed5565b60408051601f198184030181529190526020810180517bffffffffffffffffffffffffffffffffffffffffffffffffffffffff167f41304fac000000000000000000000000000000000000000000000000000000001790526108a6565b50565b6106d5848484846040516024016106789493929190610ee7565b60408051601f198184030181529190526020810180517bffffffffffffffffffffffffffffffffffffffffffffffffffffffff167faabc9a31000000000000000000000000000000000000000000000000000000001790526108a6565b50505050565b6106d5848484846040516024016106f59493929190610f35565b60408051601f198184030181529190526020810180517bffffffffffffffffffffffffffffffffffffffffffffffffffffffff167f7c4632a4000000000000000000000000000000000000000000000000000000001790526108a6565b5f5f5f5f61076086866108af565b92509250925061077082826108f8565b5090949350505050565b5f6107886020830183610caf565b6001600160a01b031660208301356107a36040850185610cc8565b6040516107b1929190610f5f565b5f6040518083038185875af1925050503d805f81146107eb576040519150601f19603f3d011682016040523d82523d5f602084013e6107f0565b606091505b50509050806108415760405162461bcd60e51b815260206004820152600d60248201527f43616c6c2072657665727465640000000000000000000000000000000000000060448201526064016100fa565b61084e6020830183610caf565b6001600160a01b0316337fed7e8f919df9cc0d0ad8b4057d084ebf319b630564d5da283e14751adc931f3a602085013561088b6040870187610cc8565b60405161089a93929190610f6e565b60405180910390a35050565b61065b816109fb565b5f5f5f83516041036108e6576020840151604085015160608601515f1a6108d888828585610a1a565b9550955095505050506108f1565b505081515f91506002905b9250925092565b5f82600381111561090b5761090b610f90565b03610914575050565b600182600381111561092857610928610f90565b0361095f576040517ff645eedf00000000000000000000000000000000000000000000000000000000815260040160405180910390fd5b600282600381111561097357610973610f90565b036109ad576040517ffce698f7000000000000000000000000000000000000000000000000000000008152600481018290526024016100fa565b60038260038111156109c1576109c1610f90565b0361010d576040517fd78bce0c000000000000000000000000000000000000000000000000000000008152600481018290526024016100fa565b5f6a636f6e736f6c652e6c6f6790505f5f835160208501845afa505050565b5f80807f7fffffffffffffffffffffffffffffff5d576e7357a4501ddfe92f46681b20a0841115610a5357505f91506003905082610ad8565b604080515f808252602082018084528a905260ff891692820192909252606081018790526080810186905260019060a0016020604051602081039080840390855afa158015610aa4573d5f5f3e3d5ffd5b5050604051601f1901519150506001600160a01b038116610acf57505f925060019150829050610ad8565b92505f91508190505b9450945094915050565b5f5f83601f840112610af2575f5ffd5b50813567ffffffffffffffff811115610b09575f5ffd5b6020830191508360208260051b8501011115610b23575f5ffd5b9250929050565b5f5f60208385031215610b3b575f5ffd5b823567ffffffffffffffff811115610b51575f5ffd5b610b5d85828601610ae2565b90969095509350505050565b80356001600160a01b0381168114610b7f575f5ffd5b919050565b5f5f5f60608486031215610b96575f5ffd5b610b9f84610b69565b9250610bad60208501610b69565b929592945050506040919091013590565b5f5f5f5f60408587031215610bd1575f5ffd5b843567ffffffffffffffff811115610be7575f5ffd5b610bf387828801610ae2565b909550935050602085013567ffffffffffffffff811115610c12575f5ffd5b8501601f81018713610c22575f5ffd5b803567ffffffffffffffff811115610c38575f5ffd5b876020828401011115610c49575f5ffd5b949793965060200194505050565b5f60208284031215610c67575f5ffd5b81518015158114610c76575f5ffd5b9392505050565b634e487b7160e01b5f52603260045260245ffd5b5f8235605e19833603018112610ca5575f5ffd5b9190910192915050565b5f60208284031215610cbf575f5ffd5b610c7682610b69565b5f5f8335601e19843603018112610cdd575f5ffd5b83018035915067ffffffffffffffff821115610cf7575f5ffd5b602001915036819003821315610b23575f5ffd5b5f81518060208401855e5f93019283525090919050565b5f610d2d8288610d0b565b6bffffffffffffffffffffffff198760601b168152856014820152838560348301375f9301603401928352509095945050505050565b8281525f610d746020830184610d0b565b949350505050565b5f60018201610d9957634e487b7160e01b5f52601160045260245ffd5b5060010190565b81835281816020850137505f828201602090810191909152601f909101601f19169091010190565b602080825281018290525f6040600584901b830181019083018583605e1936839003015b87821015610e9a57868503603f190184528235818112610e0a575f5ffd5b89016001600160a01b03610e1d82610b69565b16865260208181013590870152604081013536829003601e19018112610e41575f5ffd5b0160208101903567ffffffffffffffff811115610e5c575f5ffd5b803603821315610e6a575f5ffd5b60606040880152610e7f606088018284610da0565b96505050602083019250602084019350600182019150610dec565b5092979650505050505050565b5f81518084528060208401602086015e5f602082860101526020601f19601f83011685010191505092915050565b602081525f610c766020830184610ea7565b608081525f610ef96080830187610ea7565b6001600160a01b03861660208401528281036040840152610f1a8186610ea7565b9150506001600160a01b038316606083015295945050505050565b608081525f610f476080830187610ea7565b8560208401528281036040840152610f1a8186610ea7565b818382375f9101908152919050565b838152604060208201525f610f87604083018486610da0565b95945050505050565b634e487b7160e01b5f52602160045260245ffdfea2646970667358221220b5285742dfc256c612cd1f7c091fb5800f2ec26c92ca43f7503351190c5f13b164736f6c634300081e0033","linkReferences":{}},"methodIdentifiers":{"batchReward(address,address,uint256)":"45f105d2","execute((address,uint256,bytes)[])":"3f707e6b","execute((address,uint256,bytes)[],bytes)":"6171d1c9","nonce()":"affed0e0"},"id":33}